:1000000072C000007BC200009CC000009AC00000CB
:1000100098C0000096C0000094C0000092C000008C
:1000200090C000008EC000008CC000008AC000009C
:1000300088C0000086C0000084C0000082C00000AC
:1000400080C000007EC000007CC000007AC00000BC
:1000500078C0000076C0000074C0000072C00000CC
:1000600070C000003AC200006CC000006AC000000E
:1000700068C0000066C0000064C0000062C00000EC
:1000800060C000005EC000005CC000005AC00000FC
:1000900013C2000056C0000054C0000052C000004F
:1000A00050C000004EC000004CC000004AC000001C
:1000B00048C0000046C0000044C0000042C000002C
:1000C00040C000003EC000003CC000003AC000003C
:1000D00038C0000036C0000034C0000032C000004C
:1000E00030C00000A70211241FBECFEFD1E2DEBF57
:1000F000CDBF00E00CBF12E0A0E0B2E0EAE6F5E020
:1001000000E00BBF02C007900D92A230B107D9F7F3
:1001100022E0A2E0B2E001C01D92A531B207E1F7F2
:1001200010E0C3E7D0E000E005C021970109802F6F
:10013000FE0111D2C237D10780E00807B1F759D1CB
:1001400012C25ECFFC0188E98093C90086E08093EB
:10015000CA0087E690E09093CD008093CC008FEFAB
:1001600084B915B881E0828380E883838AEA848336
:1001700085E581830895FC0181810895FC016183F7
:100180000895DC0111968C911197861318C0E8EC44
:10019000F0E0908195FFFDCF8C91843441F412966C
:1001A0008C9112978093CE0081E48C9308951396DE
:1001B0008C9113978093CE0084E48C930895E8EC9F
:1001C000F0E0908195FFFDCF14968C911497809369
:1001D000CE002FEF8BE792E9215080409040E1F76D
:1001E00000C00000E8ECF0E0908195FFFDCF8C911D
:1001F000843429F413968C918093CE00089512963E
:100200008C918093CE000895FC0188E98093C10011
:1002100086E08093C20087E690E09093C5008093CB
:10022000C4008FEF84B915B892E3918396E9908367
:1002300082830895E0ECF0E080818823ECF78091E0
:10024000C6000895EF92FF920F931F93CF93DF9311
:10025000EC017B018A01EEDFF7018083CE01EADF4A
:10026000F8018083DF91CF911F910F91FF90EF9064
:100270000895E0CF0895E0ECF0E0808185FFFDCFA8
:100280006093C6000895FC0181E09081961380E0A0
:10029000089521E0FC018181861320E0822F0895DA
:1002A000DC0151961C921E92509752961C925297C6
:1002B00081E08C9311968C93119712968C931297E0
:1002C00013961C921397FD013496CD01409611921E
:1002D000E817F907E1F781E0809369008DBB789416
:1002E0008FEF84B915B880E48093800088E0809314
:1002F000810082E490E090938900809388000895C3
:10030000FC018FEF840F8F3010F4643018F0128AE4
:1003100080E0089561FF04C081E08483158203C0FA
:10032000148281E0858360FF04C081E086831782A8
:1003300003C0168281E0878343FF04C081E0808789
:10034000118603C0108681E0818742FF04C081E0EE
:100350008287138603C0128681E0838741FF04C031
:1003600081E08487158603C0148681E0858740FF7D
:1003700004C081E08687178603C0168681E08787E0
:1003800081E0828B0895CF93DF93FC011DBA8289AF
:10039000882349F1A089B189AE0FBF1F8C918823B2
:1003A000B1F0C0E8D0E0888180648883A1E8B0E043
:1003B0008C9189608C938FE99FE00197F1F700C0E1
:1003C000000088818F7388838C91887F8C938089CB
:1003D00091898F30910524F0118A108A128A03C006
:1003E0000196918B808B81E08CBB8DBBDF91CF918F
:1003F0000895CF93DF93CDB7DEB72A970FB6F89461
:10040000DEBF0FBECDBF7894CE0101969BDECE013C
:100410000696FADE87EE85B90F2EFEECEF2EF12C54
:10042000F02D09E40F2EF6ECCF2ED12CF02DCE01BD
:100430000196A1DE85B980910002843459F4F894C4
:10044000F7011081612FCE0101969BDE15B9009353
:100450000002789480910002803549F7F894F60103
:100460001081612FCE01069614DF882379F0AE014A
:10047000465F5F4FBE01675F7F4FCE010696E2DEAB
:1004800078944A85698582E092E03ADF612FCE0157
:100490000696F9DE882361F0CE010696EADE182F73
:1004A000682FCE0101966ADE612FCE010696E3DE4B
:1004B000009300027894BBCF1F920F920FB60F9259
:1004C00011248F9384E48093000288E185B98F9191
:1004D0000F900FBE0F901F9018951F920F920FB69E
:1004E0000F9211248F9380E5809300028CE385B9ED
:1004F0008F910F900FBE0F901F9018951F920F9223
:100500000FB60F9211240BB60F922F933F934F9378
:100510005F936F937F938F939F93AF93BF93EF936B
:10052000FF9382E092E02FDFFF91EF91BF91AF91B7
:100530009F918F917F916F915F914F913F912F91FB
:100540000F900BBE0F900FBE0F901F90189582E07A
:1005500092E0A6CE0895EE0FFF1F881F8BBF079075
:0A056000F691E02D1994F894FFCFF6
:02056A00490046
:00000001FF
