:1000000072C0000082C100008FC000008DC00000DF
:100010008BC0000089C0000087C0000085C00000C0
:1000200083C0000081C000007FC000007DC00000D0
:100030007BC0000079C0000077C0000075C00000E0
:1000400073C0000071C000006FC000006DC00000F0
:100050006BC0000069C0000067C0000065C0000000
:1000600063C0000061C000005FC000005DC0000010
:100070005BC0000059C0000057C0000055C0000020
:1000800053C0000051C000004FC000004DC0000030
:100090004BC0000049C0000047C0000045C0000040
:1000A00043C0000041C000003FC000003DC0000050
:1000B0003BC0000039C0000037C0000035C0000060
:1000C00033C0000031C000002FC000002DC0000070
:1000D0002BC0000029C0000027C0000025C0000080
:1000E00023C00000AE0111241FBECFEFD1E2DEBF5E
:1000F000CDBF00E00CBF22E0A0E0B2E001C01D9245
:10010000A331B207E1F710E0C3E7D0E000E005C09B
:1001100021970109802FFE0125D1C237D10780E048
:100120000807B1F7ABD026C16BCFDC0151961C920A
:100130001E92509752961C92529781E08C93119682
:100140008C93119712968C93129713961C92139777
:10015000FD013496CD0140961192E817F907E1F7B9
:1001600081E0809369008DBB78948FEF84B915B8D6
:1001700080E48093800088E08093810082E490E0B6
:1001800090938900809388000895FC018FEF840F7D
:100190008F3010F4643018F0128A80E0089561FF07
:1001A00004C081E08483158203C0148281E08583CA
:1001B00060FF04C081E08683178203C0168281E05D
:1001C000878343FF04C081E08087118603C01086C7
:1001D00081E0818742FF04C081E08287138603C0EB
:1001E000128681E0838741FF04C081E08487158601
:1001F00003C0148681E0858740FF04C081E08687C4
:10020000178603C0168681E0878781E0828B089578
:10021000CF93DF93FC011DBA8289882349F1A0891D
:10022000B189AE0FBF1F8C918823B1F0C0E8D0E038
:10023000888180648883A1E8B0E08C9189608C9388
:100240008FE99FE00197F1F700C0000088818F736C
:1002500088838C91887F8C93808991898F309105D8
:1002600024F0118A108A128A03C00196918B808B28
:1002700081E08CBB8DBBDF91CF91089542E062E0BD
:1002800080E092E082DF2FEF83ED90E32150804009
:100290009040E1F700C0000041E062E080E092E0C1
:1002A00074DF2FEF83ED90E3215080409040E1F721
:1002B00000C0000049E062E080E092E066DF2FEFDE
:1002C00083ED90E3215080409040E1F700C00000B2
:1002D0004DE062E080E092E058DF2FEF83ED90E3A5
:1002E000215080409040E1F700C000004EE062E005
:1002F00080E092E04ADF2FEF83ED90E321508040D1
:100300009040E1F700C00000B9CF1F920F920FB6E6
:100310000F9211240BB60F922F933F934F935F933D
:100320006F937F938F939F93AF93BF93EF93FF93BD
:1003300080E092E06DDFFF91EF91BF91AF919F91CF
:100340008F917F916F915F914F913F912F910F907E
:100350000BBE0F900FBE0F901F90189580E092E09B
:10036000E4CE0895EE0FFF1F881F8BBF0790F69114
:08037000E02D1994F894FFCF71
:00000001FF
