:1000000071C00000F8C1000084C0000082C0000080
:1000100080C000007EC000007CC000007AC00000EC
:1000200078C0000076C0000074C0000072C00000FC
:1000300070C000006EC000006CC000006AC000000C
:1000400068C0000066C0000064C0000062C000001C
:1000500060C000005EC000005CC000005AC000002C
:1000600058C0000056C0000054C0000052C000003C
:1000700050C000004EC000004CC000004AC000004C
:1000800048C0000046C0000044C0000042C000005C
:1000900040C000003EC000003CC000003AC000006C
:1000A00038C0000036C0000034C0000032C000007C
:1000B00030C000002EC000002CC000002AC000008C
:1000C00028C0000026C0000024C0000022C000009C
:1000D00020C000001EC000001CC000001AC00000AC
:1000E00018C0000011241FBECFEFD1E2DEBFCDBF8C
:1000F00000E00CBF12E0A0E0B2E0E8E1F4E000E0D4
:100100000BBF02C007900D92A230B107D9F728D1DA
:1001100081C176CFE1E0F1E0808180618083E2E01F
:10012000F1E080818F7E80830895E2E0F1E08081BC
:10013000806180830895E2E0F1E080818F7E80839A
:100140000895DC0181E0809369008DBBE1E0F1E07E
:1001500080818F7D808357961C921E92569755966C
:100160001C925597CD0108969D01205F3F4FFC01E1
:1001700011922E173F07E1F750961C925097519617
:100180001C92519752961C92529753961C925397D9
:10019000FD0111928E179F07E1F781E059968C932C
:1001A00059975A968C935A975B968C935B975C966B
:1001B0001C925C976115710561F45D961C925D97C8
:1001C0005E968C935E975F961C925F9790968C9349
:1001D00008956130710569F45D961C925D9781E028
:1001E0005E968C935E975F968C935F9790961C9229
:1001F00008956230710569F481E05D968C935D9796
:100200005E961C925E975F961C925F9790968C9379
:1002100008956330710561F481E05D968C935D977C
:100220005E961C925E975F968C935F9790961C9259
:100230000895FC018085811108C08185882309F417
:1002400042C08489877F848B06C08185811134C038
:1002500084898860848B8285811107C08385882387
:1002600091F184898B7F848B06C08385811126C0A0
:1002700084898460848B8485811107C08585882367
:1002800011F184898D7F848B06C08585811118C00A
:1002900084898260848B8685811107C08785882345
:1002A00091F094899E7F948B0895978591110AC04F
:1002B00094899160948B089580E0089580E008957A
:1002C00080E0089580E00895CF93DF93EC01188ECD
:1002D0008D8981111AC0FE019E01295F3F4F8181E6
:1002E0008193E217F307D9F76F839881898D981767
:1002F00041F109C09191808D981305C02D8BE417B1
:10030000F507C1F71CC01D8A1AC08E899F898730E6
:10031000910544F4FE01E80FF91F608701969F8B59
:100320008E8B0DC0079741F46F87CE0182DF888FD7
:100330001D8A1F8A1E8A03C01D8A1F8A1E8A888DF5
:1003400009C081E08D8BFE013196AE01485F5F4FA1
:1003500021E0D0CFDF91CF910895FC0184890895E9
:10036000CF93DF93CDB7DEB7A2970FB6F894DEBF79
:100370000FBECDBF62E070E0CE010196E2DECE019D
:100380008296C8DECE018296D0DE2FEF8BE792E90F
:10039000215080409040E1F700C00000CE018296DD
:1003A000CADE7894E12CFF24F39419E480910002D2
:1003B0008235E1F7EFE3F6E03197F1F700C0000096
:1003C000F701608165FB662760F9CE0101967CDF4D
:1003D00010930002882351F3CE010196BEDF8130D5
:1003E00021F4CE018296A7DEE1CF8230F9F6CE016C
:1003F00082969BDEDBCF1F920F920FB60F921124D5
:100400008F9382E5809300028F910F900FBE0F9023
:080410001F901895F894FFCF2E
:02041800490099
:00000001FF
