S01200004C616D704D6F64756C652E7372656322
S113000071C0000052C2000084C0000082C0000021
S113001080C000007EC000007CC000007AC00000E8
S113002078C0000076C0000074C0000072C00000F8
S113003070C000006EC000006CC000006AC0000008
S113004068C0000066C0000064C0000062C0000018
S113005060C000005EC000005CC000005AC0000028
S113006058C0000056C0000054C0000052C0000038
S113007050C000004EC000004CC000004AC0000048
S113008048C0000046C0000044C0000042C0000058
S113009040C000003EC000003CC000003AC0000068
S11300A038C0000036C0000034C0000032C0000078
S11300B030C000002EC000002CC000002AC0000088
S11300C028C0000026C0000024C0000022C0000098
S11300D020C000001EC000001CC000001AC00000A8
S11300E018C0000011241FBECFEFD1E2DEBFCDBF88
S11300F000E00CBF12E0A0E0B2E0E0E1F7E000E0D5
S11301000BBF02C007900D92A230B107D9F741D1BD
S1130110FDC276CF21E82093B00023E02093B10004
S1130120249A2C9824E630E0FC0131832083109239
S1130130B3000895FC0160817181072E000C880BC7
S1130140990B58D29B01AC0160E078E387EC96E40C
S1130150BBD122D26093B30008951092B3000895E6
S11301606536710590F4FC0171836083072E000CE1
S1130170880B990B3FD29B01AC0160E078E387ECDC
S113018096E4A2D109D26093B3000895DC0181E022
S1130190809369008DBBE1E0F1E080818F7D8083F5
S11301A053961C921E92529751961C925197CD01D0
S11301B008969D01205F3F4FFC011192E217F3075F
S11301C0E1F7FD0111928E179F07E1F781E0559643
S11301D08C93559756968C93569757968C9357971E
S11301E058961C9258976115710561F459961C92A2
S11301F059975A968C935A975B961C925B975C9688
S11302008C9308956130710569F459961C9259973D
S113021081E05A968C935A975B968C935B975C9685
S11302201C9208956230710569F481E059968C93AB
S113023059975A961C925A975B961C925B975C96B8
S11302408C9308956330710561F481E059968C9321
S113025059975A961C925A975B968C935B975C9627
S11302601C920895FC018085811108C08185882332
S113027009F442C08089877F808B06C08185811103
S113028034C080898860808B8285811107C0838512
S1130290882391F180898B7F808B06C083858111AF
S11302A026C080898460808B8485811107C0858500
S11302B0882311F180898D7F808B06C0858581110B
S11302C018C080898260808B8685811107C08785EC
S11302D0882391F090899E7F908B08959785911142
S11302E00AC090899160908B089580E0089580E021
S11302F0089580E0089580E00895CF93DF93EC01A2
S11303001C8A898981111AC0FE019E01295F3F4F11
S113031081818193E217F307D9F76F8398818D89DF
S1130320981741F109C091918489981305C0298BCC
S1130330E417F507C1F71CC0198A1AC08A899B897A
S11303408730910544F4FE01E80FF91F6087019698
S11303509B8B8A8B0DC0079741F46F87CE0182DF98
S11303608C8B198A1B8A1A8A03C0198A1B8A1A8AD7
S11303708C8909C081E0898BFE013196AE01485F0A
S11303805F4F21E0D0CFDF91CF910895FC018089A8
S11303900895CF93DF93CDB7DEB76F970FB6F89478
S11303A0DEBF0FBECDBF62E070E0CE010196EEDE8F
S11303B0CE014E96AFDECE014E96BCDE2FEF8BE71C
S11303C092E9215080409040E1F700C00000CE0146
S11303D04E96C3DE7894E12CFF24F39419E48091C3
S11303E000028235E1F7EFE3F6E03197F1F700C060
S11303F00000F701608165FB662760F9CE01019674
S11304007CDF10930002882351F3CE010196BEDFF6
S1130410813021F4CE014E96A0DEE1CF823021F46A
S1130420CE014E9687DEDBCF883031F460E270E097
S1130430CE014E9695DED3CF893031F460E470E07E
S1130440CE014E968DDECBCF8A3031F460E670E07B
S1130450CE014E9685DEC3CF8B3031F460E870E078
S1130460CE014E967DDEBBCF8C3031F46FE970E067
S1130470CE014E9675DEB3CF8D3031F46FEB70E064
S1130480CE014E966DDEABCF8E3031F46FED70E061
S1130490CE014E9665DEA3CF8F3009F0A0CF6FEF6B
S11304A070E0CE014E965CDE9ACF1F920F920FB68B
S11304B00F9211248F9382E5809300028F910F9005
S11304C00FBE0F901F9018950CD0E6C0DED040F000
S11304D0D5D030F021F45F3F19F0C7C0511110C1DD
S11304E0CAC0EBD098F39923C9F35523B1F3951BF4
S11304F0550BBB27AA2762177307840738F09F5F41
S11305005F4F220F331F441FAA1FA9F333D00E2EAF
S11305103AF0E0E830D091505040E695001CCAF71C
S113052029D0FE2F27D0660F771F881FBB1F2617E1
S113053037074807AB07B0E809F0BB0B802DBF01B4
S1130540FF2793585F4F2AF09E3F510568F08DC0F6
S1130550D7C05F3FECF3983EDCF3869577956795BB
S1130560B795F7959F5FC9F7880F911D9695879565
S113057097F90895E1E0660F771F881FBB1F621784
S113058073078407BA0720F0621B730B840BBA0B42
S1130590EE1F88F7E095089598D088F09F5790F063
S11305A0B92F9927B751A0F0D1F0660F771F881F94
S11305B0991F1AF0BA95C9F712C0B13081F09FD0D3
S11305C0B1E008959CC0672F782F8827B85F39F071
S11305D0B93FCCF3869577956795B395D9F73EF4F3
S11305E090958095709561957F4F8F4F9F4F08959B
S11305F0E89409C097FB3EF49095809570956195B9
S11306007F4F8F4F9F4F9923A9F0F92F96E9BB276E
S11306109395F695879577956795B795F111F8CFEA
S1130620FAF4BB0F11F460FF1BC06F5F7F4F8F4F55
S11306309F4F16C0882311F096E911C0772321F04B
S11306409EE8872F762F05C0662371F096E8862FE3
S113065070E060E02AF09A95660F771F881FDAF73A
S1130660880F9695879597F9089597F99F6780E87D
S113067070E060E008959FEF80EC089500240A94F0
S11306801616170618060906089500240A94121669
S11306901306140605060895092E0394000C11F49C
S11306A0882352F0BB0F40F4BF2B11F460FF04C049
S11306B06F5F7F4F8F4F9F4F089557FD9058440FA2
S11306C0551F59F05F3F71F04795880F97FB991FAD
S11306D061F09F3F79F0879508951216130614066A
S11306E0551FF2CF4695F1DF08C0161617061806F7
S11306F0991FF1CF86957105610508940895E894D2
S1130700BB2766277727CB0197F90895F894FFCF85
S105071049009A
S9030000FC
